{
  "_format": "hh-sol-artifact-1",
  "contractName": "AngryRabbits",
  "sourceName": "contracts/AngryRabbits.sol",
  "abi": [
    {
      "inputs": [],
      "stateMutability": "nonpayable",
      "type": "constructor"
    },
    {
      "inputs": [
        {
          "internalType": "address",
          "name": "have",
          "type": "address"
        },
        {
          "internalType": "address",
          "name": "want",
          "type": "address"
        }
      ],
      "name": "OnlyCoordinatorCanFulfill",
      "type": "error"
    },
    {
      "anonymous": false,
      "inputs": [
        {
          "indexed": false,
          "internalType": "address",
          "name": "winner",
          "type": "address"
        },
        {
          "indexed": false,
          "internalType": "uint256",
          "name": "roundnum",
          "type": "uint256"
        }
      ],
      "name": "FinishedOneFight",
      "type": "event"
    },
    {
      "anonymous": false,
      "inputs": [
        {
          "indexed": true,
          "internalType": "address",
          "name": "from",
          "type": "address"
        },
        {
          "indexed": true,
          "internalType": "address",
          "name": "to",
          "type": "address"
        }
      ],
      "name": "OwnershipTransferRequested",
      "type": "event"
    },
    {
      "anonymous": false,
      "inputs": [
        {
          "indexed": true,
          "internalType": "address",
          "name": "from",
          "type": "address"
        },
        {
          "indexed": true,
          "internalType": "address",
          "name": "to",
          "type": "address"
        }
      ],
      "name": "OwnershipTransferred",
      "type": "event"
    },
    {
      "anonymous": false,
      "inputs": [
        {
          "indexed": false,
          "internalType": "uint256",
          "name": "requestId",
          "type": "uint256"
        },
        {
          "indexed": false,
          "internalType": "uint256[]",
          "name": "randomWords",
          "type": "uint256[]"
        }
      ],
      "name": "RequestFulfilled",
      "type": "event"
    },
    {
      "anonymous": false,
      "inputs": [
        {
          "indexed": false,
          "internalType": "uint256",
          "name": "requestId",
          "type": "uint256"
        },
        {
          "indexed": false,
          "internalType": "uint32",
          "name": "numWords",
          "type": "uint32"
        }
      ],
      "name": "RequestSent",
      "type": "event"
    },
    {
      "inputs": [],
      "name": "acceptOwnership",
      "outputs": [],
      "stateMutability": "nonpayable",
      "type": "function"
    },
    {
      "inputs": [
        {
          "internalType": "uint256",
          "name": "_roomnum",
          "type": "uint256"
        }
      ],
      "name": "bet",
      "outputs": [],
      "stateMutability": "nonpayable",
      "type": "function"
    },
    {
      "inputs": [],
      "name": "firstrandom",
      "outputs": [
        {
          "internalType": "uint256",
          "name": "",
          "type": "uint256"
        }
      ],
      "stateMutability": "view",
      "type": "function"
    },
    {
      "inputs": [
        {
          "internalType": "uint256",
          "name": "_requestId",
          "type": "uint256"
        }
      ],
      "name": "getRequestStatus",
      "outputs": [
        {
          "internalType": "uint256[]",
          "name": "randomWords",
          "type": "uint256[]"
        }
      ],
      "stateMutability": "view",
      "type": "function"
    },
    {
      "inputs": [],
      "name": "lastRequestId",
      "outputs": [
        {
          "internalType": "uint256",
          "name": "",
          "type": "uint256"
        }
      ],
      "stateMutability": "view",
      "type": "function"
    },
    {
      "inputs": [],
      "name": "maxroomnum",
      "outputs": [
        {
          "internalType": "uint256",
          "name": "",
          "type": "uint256"
        }
      ],
      "stateMutability": "view",
      "type": "function"
    },
    {
      "inputs": [],
      "name": "owner",
      "outputs": [
        {
          "internalType": "address",
          "name": "",
          "type": "address"
        }
      ],
      "stateMutability": "view",
      "type": "function"
    },
    {
      "inputs": [
        {
          "internalType": "uint256",
          "name": "requestId",
          "type": "uint256"
        },
        {
          "internalType": "uint256[]",
          "name": "randomWords",
          "type": "uint256[]"
        }
      ],
      "name": "rawFulfillRandomWords",
      "outputs": [],
      "stateMutability": "nonpayable",
      "type": "function"
    },
    {
      "inputs": [
        {
          "internalType": "uint256",
          "name": "",
          "type": "uint256"
        }
      ],
      "name": "requestIds",
      "outputs": [
        {
          "internalType": "uint256",
          "name": "",
          "type": "uint256"
        }
      ],
      "stateMutability": "view",
      "type": "function"
    },
    {
      "inputs": [],
      "name": "requestRandomWords",
      "outputs": [
        {
          "internalType": "uint256",
          "name": "requestId",
          "type": "uint256"
        }
      ],
      "stateMutability": "nonpayable",
      "type": "function"
    },
    {
      "inputs": [
        {
          "internalType": "address",
          "name": "",
          "type": "address"
        }
      ],
      "name": "reward",
      "outputs": [
        {
          "internalType": "uint256",
          "name": "",
          "type": "uint256"
        }
      ],
      "stateMutability": "view",
      "type": "function"
    },
    {
      "inputs": [
        {
          "internalType": "uint256",
          "name": "",
          "type": "uint256"
        }
      ],
      "name": "roominfo",
      "outputs": [
        {
          "internalType": "bool",
          "name": "status",
          "type": "bool"
        }
      ],
      "stateMutability": "view",
      "type": "function"
    },
    {
      "inputs": [
        {
          "internalType": "uint256",
          "name": "",
          "type": "uint256"
        }
      ],
      "name": "s_requests",
      "outputs": [
        {
          "internalType": "bool",
          "name": "fulfilled",
          "type": "bool"
        },
        {
          "internalType": "bool",
          "name": "exists",
          "type": "bool"
        }
      ],
      "stateMutability": "view",
      "type": "function"
    },
    {
      "inputs": [],
      "name": "secondrandom",
      "outputs": [
        {
          "internalType": "uint256",
          "name": "",
          "type": "uint256"
        }
      ],
      "stateMutability": "view",
      "type": "function"
    },
    {
      "inputs": [
        {
          "internalType": "address",
          "name": "to",
          "type": "address"
        }
      ],
      "name": "transferOwnership",
      "outputs": [],
      "stateMutability": "nonpayable",
      "type": "function"
    }
  ],
  "bytecode": "0x60a06040527f79d3d8832d904592c0bf9818b621522c988bb8b0c05cdc3b15aea1b6e8db0c1560001b600b55620186a0600c60006101000a81548163ffffffff021916908363ffffffff1602179055506003600c60046101000a81548161ffff021916908361ffff1602179055506002600c60066101000a81548163ffffffff021916908363ffffffff1602179055503480156200009c57600080fd5b5033806000732ca8e0c643bde4c2e08ab1fa0da3401adad7734d8073ffffffffffffffffffffffffffffffffffffffff1660808173ffffffffffffffffffffffffffffffffffffffff168152505050600073ffffffffffffffffffffffffffffffffffffffff168273ffffffffffffffffffffffffffffffffffffffff16036200015d576040517f08c379a0000000000000000000000000000000000000000000000000000000008152600401620001549062000405565b60405180910390fd5b816000806101000a81548173ffffffffffffffffffffffffffffffffffffffff021916908373ffffffffffffffffffffffffffffffffffffffff160217905550600073ffffffffffffffffffffffffffffffffffffffff168173ffffffffffffffffffffffffffffffffffffffff1614620001e457620001e3816200027560201b60201c565b5b505050732ca8e0c643bde4c2e08ab1fa0da3401adad7734d600560006101000a81548173ffffffffffffffffffffffffffffffffffffffff021916908373ffffffffffffffffffffffffffffffffffffffff1602179055506121f5600560146101000a81548167ffffffffffffffff021916908367ffffffffffffffff1602179055506000600a8190555062000499565b3373ffffffffffffffffffffffffffffffffffffffff168173ffffffffffffffffffffffffffffffffffffffff1603620002e6576040517f08c379a0000000000000000000000000000000000000000000000000000000008152600401620002dd9062000477565b60405180910390fd5b80600160006101000a81548173ffffffffffffffffffffffffffffffffffffffff021916908373ffffffffffffffffffffffffffffffffffffffff1602179055508073ffffffffffffffffffffffffffffffffffffffff1660008054906101000a900473ffffffffffffffffffffffffffffffffffffffff1673ffffffffffffffffffffffffffffffffffffffff167fed8889f560326eb138920d842192f0eb3dd22b4f139c87a2c57538e05bae127860405160405180910390a350565b600082825260208201905092915050565b7f43616e6e6f7420736574206f776e657220746f207a65726f0000000000000000600082015250565b6000620003ed601883620003a4565b9150620003fa82620003b5565b602082019050919050565b600060208201905081810360008301526200042081620003de565b9050919050565b7f43616e6e6f74207472616e7366657220746f2073656c66000000000000000000600082015250565b60006200045f601783620003a4565b91506200046c8262000427565b602082019050919050565b60006020820190508181036000830152620004928162000450565b9050919050565b608051611eee620004bc6000396000818161030501526103590152611eee6000f3fe608060405234801561001057600080fd5b50600436106100f55760003560e01c80638da5cb5b11610097578063d8a4676f11610066578063d8a4676f14610275578063e0c86289146102a5578063f2fde38b146102c3578063fc2a88c3146102df576100f5565b80638da5cb5b146101ea5780638f7c4e5e14610208578063a168fa8914610226578063d82edff214610257576100f5565b80636353586b116100d35780636353586b146101645780637365870b1461019457806379ba5097146101b05780638796ba8c146101ba576100f5565b806303554524146100fa5780631fe543e3146101185780635b5e87a714610134575b600080fd5b6101026102fd565b60405161010f919061148c565b60405180910390f35b610132600480360381019061012d9190611640565b610303565b005b61014e6004803603810190610149919061169c565b6103c3565b60405161015b91906116e4565b60405180910390f35b61017e6004803603810190610179919061175d565b6103ee565b60405161018b919061148c565b60405180910390f35b6101ae60048036038101906101a9919061169c565b610406565b005b6101b8610b10565b005b6101d460048036038101906101cf919061169c565b610ca5565b6040516101e1919061148c565b60405180910390f35b6101f2610cc9565b6040516101ff9190611799565b60405180910390f35b610210610cf2565b60405161021d919061148c565b60405180910390f35b610240600480360381019061023b919061169c565b610cf8565b60405161024e9291906117b4565b60405180910390f35b61025f610d36565b60405161026c919061148c565b60405180910390f35b61028f600480360381019061028a919061169c565b610d3c565b60405161029c919061189b565b60405180910390f35b6102ad610e5e565b6040516102ba919061148c565b60405180910390f35b6102dd60048036038101906102d8919061175d565b6110af565b005b6102e76110c3565b6040516102f4919061148c565b60405180910390f35b60065481565b7f000000000000000000000000000000000000000000000000000000000000000073ffffffffffffffffffffffffffffffffffffffff163373ffffffffffffffffffffffffffffffffffffffff16146103b557337f00000000000000000000000000000000000000000000000000000000000000006040517f1cf993f40000000000000000000000000000000000000000000000000000000081526004016103ac9291906118bd565b60405180910390fd5b6103bf82826110c9565b5050565b60036020528060005260406000206000915090508060000160009054906101000a900460ff16905081565b60026020528060005260406000206000915090505481565b600a548111156105385780600a819055506040518060600160405280600015158152602001600067ffffffffffffffff811115610446576104456114fd565b5b6040519080825280602002602001820160405280156104745781602001602082028036833780820191505090505b508152602001600067ffffffffffffffff811115610495576104946114fd565b5b6040519080825280602002602001820160405280156104c35781602001602082028036833780820191505090505b508152506003600083815260200190815260200160002060008201518160000160006101000a81548160ff021916908315150217905550602082015181600101908051906020019061051692919061137f565b506040820151816002019080519060200190610533929190611409565b509050505b600115156003600083815260200190815260200160002060000160009054906101000a900460ff161515036105a2576040517f08c379a000000000000000000000000000000000000000000000000000000000815260040161059990611969565b60405180910390fd5b60026003600083815260200190815260200160002060010180549050036105fe576040517f08c379a00000000000000000000000000000000000000000000000000000000081526004016105f5906119fb565b60405180910390fd5b60036000828152602001908152602001600020600101339080600181540180825580915050600190039060005260206000200160009091909190916101000a81548173ffffffffffffffffffffffffffffffffffffffff021916908373ffffffffffffffffffffffffffffffffffffffff16021790555060026003600083815260200190815260200160002060010180549050146106d1576040517f08c379a00000000000000000000000000000000000000000000000000000000081526004016106c890611a67565b60405180910390fd5b6106d9610e5e565b6009819055506106ea600954610d3c565b600360008381526020019081526020016000206002019080519060200190610713929190611409565b506001620186a06003600084815260200190815260200160002060020160008154811061074357610742611a87565b5b90600052602060002001546107589190611ae5565b6107629190611b45565b6006819055506001620186a06003600084815260200190815260200160002060020160018154811061079757610796611a87565b5b90600052602060002001546107ac9190611ae5565b6107b69190611b45565b600781905550600060026000600360008581526020019081526020016000206001016000815481106107eb576107ea611a87565b5b9060005260206000200160009054906101000a900473ffffffffffffffffffffffffffffffffffffffff1673ffffffffffffffffffffffffffffffffffffffff1673ffffffffffffffffffffffffffffffffffffffff168152602001908152602001600020819055506000600260006003600085815260200190815260200160002060010160018154811061088357610882611a87565b5b9060005260206000200160009054906101000a900473ffffffffffffffffffffffffffffffffffffffff1673ffffffffffffffffffffffffffffffffffffffff1673ffffffffffffffffffffffffffffffffffffffff1681526020019081526020016000208190555060075460065411156109a7576014600260006003600085815260200190815260200160002060010160008154811061092757610926611a87565b5b9060005260206000200160009054906101000a900473ffffffffffffffffffffffffffffffffffffffff1673ffffffffffffffffffffffffffffffffffffffff1673ffffffffffffffffffffffffffffffffffffffff168152602001908152602001600020600082825461099b9190611b45565b92505081905550610a52565b601460026000600360008581526020019081526020016000206001016001815481106109d6576109d5611a87565b5b9060005260206000200160009054906101000a900473ffffffffffffffffffffffffffffffffffffffff1673ffffffffffffffffffffffffffffffffffffffff1673ffffffffffffffffffffffffffffffffffffffff1681526020019081526020016000206000828254610a4a9190611b45565b925050819055505b60016003600083815260200190815260200160002060000160006101000a81548160ff0219169083151502179055507f9f2cfe65c36c0102e4a826582b9004daf4acb828d7d1fb477e285c3609a8fdf760036000838152602001908152602001600020600101600081548110610acb57610aca611a87565b5b9060005260206000200160009054906101000a900473ffffffffffffffffffffffffffffffffffffffff1682604051610b05929190611b79565b60405180910390a150565b600160009054906101000a900473ffffffffffffffffffffffffffffffffffffffff1673ffffffffffffffffffffffffffffffffffffffff163373ffffffffffffffffffffffffffffffffffffffff1614610ba0576040517f08c379a0000000000000000000000000000000000000000000000000000000008152600401610b9790611bee565b60405180910390fd5b60008060009054906101000a900473ffffffffffffffffffffffffffffffffffffffff169050336000806101000a81548173ffffffffffffffffffffffffffffffffffffffff021916908373ffffffffffffffffffffffffffffffffffffffff1602179055506000600160006101000a81548173ffffffffffffffffffffffffffffffffffffffff021916908373ffffffffffffffffffffffffffffffffffffffff1602179055503373ffffffffffffffffffffffffffffffffffffffff168173ffffffffffffffffffffffffffffffffffffffff167f8be0079c531659141344cd1fd0a4f28419497f9722a3daafe3b4186f6b6457e060405160405180910390a350565b60088181548110610cb557600080fd5b906000526020600020016000915090505481565b60008060009054906101000a900473ffffffffffffffffffffffffffffffffffffffff16905090565b60075481565b60046020528060005260406000206000915090508060000160009054906101000a900460ff16908060000160019054906101000a900460ff16905082565b600a5481565b60606004600083815260200190815260200160002060000160019054906101000a900460ff16610da1576040517f08c379a0000000000000000000000000000000000000000000000000000000008152600401610d9890611c5a565b60405180910390fd5b6000600460008481526020019081526020016000206040518060600160405290816000820160009054906101000a900460ff161515151581526020016000820160019054906101000a900460ff1615151515815260200160018201805480602002602001604051908101604052809291908181526020018280548015610e4657602002820191906000526020600020905b815481526020019060010190808311610e32575b50505050508152505090508060400151915050919050565b6000600560009054906101000a900473ffffffffffffffffffffffffffffffffffffffff1673ffffffffffffffffffffffffffffffffffffffff16635d3b1d30600b54600560149054906101000a900467ffffffffffffffff16600c60049054906101000a900461ffff16600c60009054906101000a900463ffffffff16600c60069054906101000a900463ffffffff166040518663ffffffff1660e01b8152600401610f0f959493929190611cf2565b6020604051808303816000875af1158015610f2e573d6000803e3d6000fd5b505050506040513d601f19601f82011682018060405250810190610f529190611d5a565b90506040518060600160405280600015158152602001600115158152602001600067ffffffffffffffff811115610f8c57610f8b6114fd565b5b604051908082528060200260200182016040528015610fba5781602001602082028036833780820191505090505b508152506004600083815260200190815260200160002060008201518160000160006101000a81548160ff02191690831515021790555060208201518160000160016101000a81548160ff021916908315150217905550604082015181600101908051906020019061102d929190611409565b509050506008819080600181540180825580915050600190039060005260206000200160009091909190915055806009819055507fcc58b13ad3eab50626c6a6300b1d139cd6ebb1688a7cced9461c2f7e762665ee81600c60069054906101000a900463ffffffff166040516110a4929190611d87565b60405180910390a190565b6110b76111c3565b6110c081611253565b50565b60095481565b6004600083815260200190815260200160002060000160019054906101000a900460ff1661112c576040517f08c379a000000000000000000000000000000000000000000000000000000000815260040161112390611c5a565b60405180910390fd5b60016004600084815260200190815260200160002060000160006101000a81548160ff02191690831515021790555080600460008481526020019081526020016000206001019080519060200190611185929190611409565b507ffe2e2d779dba245964d4e3ef9b994be63856fd568bf7d3ca9e224755cb1bd54d82826040516111b7929190611db0565b60405180910390a15050565b60008054906101000a900473ffffffffffffffffffffffffffffffffffffffff1673ffffffffffffffffffffffffffffffffffffffff163373ffffffffffffffffffffffffffffffffffffffff1614611251576040517f08c379a000000000000000000000000000000000000000000000000000000000815260040161124890611e2c565b60405180910390fd5b565b3373ffffffffffffffffffffffffffffffffffffffff168173ffffffffffffffffffffffffffffffffffffffff16036112c1576040517f08c379a00000000000000000000000000000000000000000000000000000000081526004016112b890611e98565b60405180910390fd5b80600160006101000a81548173ffffffffffffffffffffffffffffffffffffffff021916908373ffffffffffffffffffffffffffffffffffffffff1602179055508073ffffffffffffffffffffffffffffffffffffffff1660008054906101000a900473ffffffffffffffffffffffffffffffffffffffff1673ffffffffffffffffffffffffffffffffffffffff167fed8889f560326eb138920d842192f0eb3dd22b4f139c87a2c57538e05bae127860405160405180910390a350565b8280548282559060005260206000209081019282156113f8579160200282015b828111156113f75782518260006101000a81548173ffffffffffffffffffffffffffffffffffffffff021916908373ffffffffffffffffffffffffffffffffffffffff1602179055509160200191906001019061139f565b5b5090506114059190611456565b5090565b828054828255906000526020600020908101928215611445579160200282015b82811115611444578251825591602001919060010190611429565b5b5090506114529190611456565b5090565b5b8082111561146f576000816000905550600101611457565b5090565b6000819050919050565b61148681611473565b82525050565b60006020820190506114a1600083018461147d565b92915050565b6000604051905090565b600080fd5b600080fd5b6114c481611473565b81146114cf57600080fd5b50565b6000813590506114e1816114bb565b92915050565b600080fd5b6000601f19601f8301169050919050565b7f4e487b7100000000000000000000000000000000000000000000000000000000600052604160045260246000fd5b611535826114ec565b810181811067ffffffffffffffff82111715611554576115536114fd565b5b80604052505050565b60006115676114a7565b9050611573828261152c565b919050565b600067ffffffffffffffff821115611593576115926114fd565b5b602082029050602081019050919050565b600080fd5b60006115bc6115b784611578565b61155d565b905080838252602082019050602084028301858111156115df576115de6115a4565b5b835b8181101561160857806115f488826114d2565b8452602084019350506020810190506115e1565b5050509392505050565b600082601f830112611627576116266114e7565b5b81356116378482602086016115a9565b91505092915050565b60008060408385031215611657576116566114b1565b5b6000611665858286016114d2565b925050602083013567ffffffffffffffff811115611686576116856114b6565b5b61169285828601611612565b9150509250929050565b6000602082840312156116b2576116b16114b1565b5b60006116c0848285016114d2565b91505092915050565b60008115159050919050565b6116de816116c9565b82525050565b60006020820190506116f960008301846116d5565b92915050565b600073ffffffffffffffffffffffffffffffffffffffff82169050919050565b600061172a826116ff565b9050919050565b61173a8161171f565b811461174557600080fd5b50565b60008135905061175781611731565b92915050565b600060208284031215611773576117726114b1565b5b600061178184828501611748565b91505092915050565b6117938161171f565b82525050565b60006020820190506117ae600083018461178a565b92915050565b60006040820190506117c960008301856116d5565b6117d660208301846116d5565b9392505050565b600081519050919050565b600082825260208201905092915050565b6000819050602082019050919050565b61181281611473565b82525050565b60006118248383611809565b60208301905092915050565b6000602082019050919050565b6000611848826117dd565b61185281856117e8565b935061185d836117f9565b8060005b8381101561188e5781516118758882611818565b975061188083611830565b925050600181019050611861565b5085935050505092915050565b600060208201905081810360008301526118b5818461183d565b905092915050565b60006040820190506118d2600083018561178a565b6118df602083018461178a565b9392505050565b600082825260208201905092915050565b7f546869732062657474696e672067616d6520697320616c72656164792066696e60008201527f6973686564210000000000000000000000000000000000000000000000000000602082015250565b60006119536026836118e6565b915061195e826118f7565b604082019050919050565b6000602082019050818103600083015261198281611946565b9050919050565b7f54686572652061726520616c726561647920656e6f75676820706c617965727360008201527f2100000000000000000000000000000000000000000000000000000000000000602082015250565b60006119e56021836118e6565b91506119f082611989565b604082019050919050565b60006020820190508181036000830152611a14816119d8565b9050919050565b7f5468657265206172656e277420656e6f75676820706c61796572732100000000600082015250565b6000611a51601c836118e6565b9150611a5c82611a1b565b602082019050919050565b60006020820190508181036000830152611a8081611a44565b9050919050565b7f4e487b7100000000000000000000000000000000000000000000000000000000600052603260045260246000fd5b7f4e487b7100000000000000000000000000000000000000000000000000000000600052601260045260246000fd5b6000611af082611473565b9150611afb83611473565b925082611b0b57611b0a611ab6565b5b828206905092915050565b7f4e487b7100000000000000000000000000000000000000000000000000000000600052601160045260246000fd5b6000611b5082611473565b9150611b5b83611473565b9250828201905080821115611b7357611b72611b16565b5b92915050565b6000604082019050611b8e600083018561178a565b611b9b602083018461147d565b9392505050565b7f4d7573742062652070726f706f736564206f776e657200000000000000000000600082015250565b6000611bd86016836118e6565b9150611be382611ba2565b602082019050919050565b60006020820190508181036000830152611c0781611bcb565b9050919050565b7f72657175657374206e6f7420666f756e64000000000000000000000000000000600082015250565b6000611c446011836118e6565b9150611c4f82611c0e565b602082019050919050565b60006020820190508181036000830152611c7381611c37565b9050919050565b6000819050919050565b611c8d81611c7a565b82525050565b600067ffffffffffffffff82169050919050565b611cb081611c93565b82525050565b600061ffff82169050919050565b611ccd81611cb6565b82525050565b600063ffffffff82169050919050565b611cec81611cd3565b82525050565b600060a082019050611d076000830188611c84565b611d146020830187611ca7565b611d216040830186611cc4565b611d2e6060830185611ce3565b611d3b6080830184611ce3565b9695505050505050565b600081519050611d54816114bb565b92915050565b600060208284031215611d7057611d6f6114b1565b5b6000611d7e84828501611d45565b91505092915050565b6000604082019050611d9c600083018561147d565b611da96020830184611ce3565b9392505050565b6000604082019050611dc5600083018561147d565b8181036020830152611dd7818461183d565b90509392505050565b7f4f6e6c792063616c6c61626c65206279206f776e657200000000000000000000600082015250565b6000611e166016836118e6565b9150611e2182611de0565b602082019050919050565b60006020820190508181036000830152611e4581611e09565b9050919050565b7f43616e6e6f74207472616e7366657220746f2073656c66000000000000000000600082015250565b6000611e826017836118e6565b9150611e8d82611e4c565b602082019050919050565b60006020820190508181036000830152611eb181611e75565b905091905056fea2646970667358221220c6f4acec9b59741ceff7dd6c11575d9d5f04e412fd1c4f6b1db86881225ceabd64736f6c63430008110033",
  "linkReferences": {},
  "deployedLinkReferences": {}
}