{
  "_format": "hh-sol-artifact-1",
  "contractName": "SimpleFight111",
  "sourceName": "contracts/SimpleFight copy.sol",
  "abi": [
    {
      "inputs": [],
      "stateMutability": "nonpayable",
      "type": "constructor"
    },
    {
      "anonymous": false,
      "inputs": [
        {
          "indexed": false,
          "internalType": "address",
          "name": "enterer",
          "type": "address"
        },
        {
          "indexed": false,
          "internalType": "uint256",
          "name": "roomnum",
          "type": "uint256"
        }
      ],
      "name": "EnterFirstroom",
      "type": "event"
    },
    {
      "anonymous": false,
      "inputs": [
        {
          "indexed": false,
          "internalType": "address",
          "name": "winner",
          "type": "address"
        },
        {
          "indexed": false,
          "internalType": "uint256",
          "name": "roomnum",
          "type": "uint256"
        }
      ],
      "name": "FinishedOneFight",
      "type": "event"
    },
    {
      "inputs": [],
      "name": "betamount",
      "outputs": [
        {
          "internalType": "uint256",
          "name": "",
          "type": "uint256"
        }
      ],
      "stateMutability": "view",
      "type": "function"
    },
    {
      "inputs": [],
      "name": "chainlinkaddress",
      "outputs": [
        {
          "internalType": "address",
          "name": "",
          "type": "address"
        }
      ],
      "stateMutability": "view",
      "type": "function"
    },
    {
      "inputs": [
        {
          "internalType": "uint256",
          "name": "_roomnum",
          "type": "uint256"
        }
      ],
      "name": "enterroom",
      "outputs": [],
      "stateMutability": "payable",
      "type": "function"
    },
    {
      "inputs": [
        {
          "internalType": "uint256",
          "name": "_roomnum",
          "type": "uint256"
        }
      ],
      "name": "fight",
      "outputs": [],
      "stateMutability": "payable",
      "type": "function"
    },
    {
      "inputs": [],
      "name": "firstether",
      "outputs": [
        {
          "internalType": "uint256",
          "name": "",
          "type": "uint256"
        }
      ],
      "stateMutability": "view",
      "type": "function"
    },
    {
      "inputs": [],
      "name": "firstlink",
      "outputs": [
        {
          "internalType": "uint256",
          "name": "",
          "type": "uint256"
        }
      ],
      "stateMutability": "view",
      "type": "function"
    },
    {
      "inputs": [],
      "name": "firstrandom",
      "outputs": [
        {
          "internalType": "uint256",
          "name": "",
          "type": "uint256"
        }
      ],
      "stateMutability": "view",
      "type": "function"
    },
    {
      "inputs": [],
      "name": "maxroomnum",
      "outputs": [
        {
          "internalType": "uint256",
          "name": "",
          "type": "uint256"
        }
      ],
      "stateMutability": "view",
      "type": "function"
    },
    {
      "inputs": [
        {
          "internalType": "address",
          "name": "",
          "type": "address"
        }
      ],
      "name": "reward",
      "outputs": [
        {
          "internalType": "uint256",
          "name": "",
          "type": "uint256"
        }
      ],
      "stateMutability": "view",
      "type": "function"
    },
    {
      "inputs": [
        {
          "internalType": "uint256",
          "name": "",
          "type": "uint256"
        }
      ],
      "name": "roominfo",
      "outputs": [
        {
          "internalType": "bool",
          "name": "status",
          "type": "bool"
        }
      ],
      "stateMutability": "view",
      "type": "function"
    },
    {
      "inputs": [],
      "name": "secondether",
      "outputs": [
        {
          "internalType": "uint256",
          "name": "",
          "type": "uint256"
        }
      ],
      "stateMutability": "view",
      "type": "function"
    },
    {
      "inputs": [],
      "name": "secondlink",
      "outputs": [
        {
          "internalType": "uint256",
          "name": "",
          "type": "uint256"
        }
      ],
      "stateMutability": "view",
      "type": "function"
    },
    {
      "inputs": [],
      "name": "secondrandom",
      "outputs": [
        {
          "internalType": "uint256",
          "name": "",
          "type": "uint256"
        }
      ],
      "stateMutability": "view",
      "type": "function"
    },
    {
      "inputs": [],
      "name": "showfirst",
      "outputs": [
        {
          "internalType": "uint256",
          "name": "",
          "type": "uint256"
        }
      ],
      "stateMutability": "view",
      "type": "function"
    },
    {
      "inputs": [],
      "name": "showsecond",
      "outputs": [
        {
          "internalType": "uint256",
          "name": "",
          "type": "uint256"
        }
      ],
      "stateMutability": "view",
      "type": "function"
    }
  ],
  "bytecode": "0x6080604052670de0b6b3a7640000600c5573326c977e6efc84e512bb9c30f76e30c160ed06fb600d60006101000a81548173ffffffffffffffffffffffffffffffffffffffff021916908373ffffffffffffffffffffffffffffffffffffffff16021790555034801561007157600080fd5b50600d60009054906101000a900473ffffffffffffffffffffffffffffffffffffffff166000806101000a81548173ffffffffffffffffffffffffffffffffffffffff021916908373ffffffffffffffffffffffffffffffffffffffff16021790555061110a806100e36000396000f3fe6080604052600436106100e85760003560e01c8063a84b167b1161008a578063df6a37aa11610059578063df6a37aa146102db578063f1f7c829146102f7578063f5fec2e014610322578063fd6520c91461034d576100e8565b8063a84b167b1461022f578063baf6d1461461025a578063d82edff214610285578063d83e52fa146102b0576100e8565b80635b5e87a7116100c65780635b5e87a71461016e5780636353586b146101ab57806380b37952146101e85780638f7c4e5e14610204576100e8565b806303554524146100ed5780632834ceb814610118578063466d7e3414610143575b600080fd5b3480156100f957600080fd5b50610102610378565b60405161010f9190610b42565b60405180910390f35b34801561012457600080fd5b5061012d61037e565b60405161013a9190610b9e565b60405180910390f35b34801561014f57600080fd5b506101586103a4565b6040516101659190610b42565b60405180910390f35b34801561017a57600080fd5b5061019560048036038101906101909190610bea565b6103aa565b6040516101a29190610c32565b60405180910390f35b3480156101b757600080fd5b506101d260048036038101906101cd9190610c79565b6103d5565b6040516101df9190610b42565b60405180910390f35b61020260048036038101906101fd9190610bea565b6103ed565b005b34801561021057600080fd5b50610219610679565b6040516102269190610b42565b60405180910390f35b34801561023b57600080fd5b5061024461067f565b6040516102519190610b42565b60405180910390f35b34801561026657600080fd5b5061026f610685565b60405161027c9190610b42565b60405180910390f35b34801561029157600080fd5b5061029a61068b565b6040516102a79190610b42565b60405180910390f35b3480156102bc57600080fd5b506102c5610691565b6040516102d29190610b42565b60405180910390f35b6102f560048036038101906102f09190610bea565b610697565b005b34801561030357600080fd5b5061030c610a23565b6040516103199190610b42565b60405180910390f35b34801561032e57600080fd5b50610337610a29565b6040516103449190610b42565b60405180910390f35b34801561035957600080fd5b50610362610a2f565b60405161036f9190610b42565b60405180910390f35b60035481565b600d60009054906101000a900473ffffffffffffffffffffffffffffffffffffffff1681565b600c5481565b60026020528060005260406000206000915090508060000160009054906101000a900460ff16905081565b60016020528060005260406000206000915090505481565b600a341015610431576040517f08c379a000000000000000000000000000000000000000000000000000000000815260040161042890610d03565b60405180910390fd5b3460068190555060055481111561057a57806005819055506040518060600160405280600015158152602001600067ffffffffffffffff81111561047857610477610d23565b5b6040519080825280602002602001820160405280156104a65781602001602082028036833780820191505090505b508152602001600067ffffffffffffffff8111156104c7576104c6610d23565b5b6040519080825280602002602001820160405280156104f55781602001602082028036833780820191505090505b508152506002600083815260200190815260200160002060008201518160000160006101000a81548160ff0219169083151502179055506020820151816001019080519060200190610548929190610a35565b506040820151816002019080519060200190610565929190610abf565b50905050600060038190555060006004819055505b6001620186a04233604051602001610593929190610dbb565b6040516020818303038152906040528051906020012060001c6105b69190610e16565b6105c09190610e76565b60038190555060026000828152602001908152602001600020600101339080600181540180825580915050600190039060005260206000200160009091909190916101000a81548173ffffffffffffffffffffffffffffffffffffffff021916908373ffffffffffffffffffffffffffffffffffffffff1602179055507f3b3352a97af2b296cb7a7c4bb6c9bf8c6d885645b98cbf00db11e152e4a2411a338260405161066e929190610eaa565b60405180910390a150565b60045481565b60095481565b600b5481565b60055481565b60075481565b3460078190555060008054906101000a900473ffffffffffffffffffffffffffffffffffffffff1673ffffffffffffffffffffffffffffffffffffffff166370a08231336040518263ffffffff1660e01b81526004016106f79190610b9e565b602060405180830381865afa158015610714573d6000803e3d6000fd5b505050506040513d601f19601f820116820180604052508101906107389190610ee8565b600981905550600a341015610782576040517f08c379a000000000000000000000000000000000000000000000000000000000815260040161077990610d03565b60405180910390fd5b600115156002600083815260200190815260200160002060000160009054906101000a900460ff161515036107ec576040517f08c379a00000000000000000000000000000000000000000000000000000000081526004016107e390610f87565b60405180910390fd5b60028060008381526020019081526020016000206001018054905003610847576040517f08c379a000000000000000000000000000000000000000000000000000000000815260040161083e90611019565b60405180910390fd5b60026000828152602001908152602001600020600101339080600181540180825580915050600190039060005260206000200160009091909190916101000a81548173ffffffffffffffffffffffffffffffffffffffff021916908373ffffffffffffffffffffffffffffffffffffffff16021790555060028060008381526020019081526020016000206001018054905014610919576040517f08c379a000000000000000000000000000000000000000000000000000000000815260040161091090611085565b60405180910390fd5b6001620186a04233604051602001610932929190610dbb565b6040516020818303038152906040528051906020012060001c6109559190610e16565b61095f9190610e76565b60048190555060016002600083815260200190815260200160002060000160006101000a81548160ff0219169083151502179055507f9f2cfe65c36c0102e4a826582b9004daf4acb828d7d1fb477e285c3609a8fdf7600260008381526020019081526020016000206001016000815481106109de576109dd6110a5565b5b9060005260206000200160009054906101000a900473ffffffffffffffffffffffffffffffffffffffff1682604051610a18929190610eaa565b60405180910390a150565b600a5481565b60065481565b60085481565b828054828255906000526020600020908101928215610aae579160200282015b82811115610aad5782518260006101000a81548173ffffffffffffffffffffffffffffffffffffffff021916908373ffffffffffffffffffffffffffffffffffffffff16021790555091602001919060010190610a55565b5b509050610abb9190610b0c565b5090565b828054828255906000526020600020908101928215610afb579160200282015b82811115610afa578251825591602001919060010190610adf565b5b509050610b089190610b0c565b5090565b5b80821115610b25576000816000905550600101610b0d565b5090565b6000819050919050565b610b3c81610b29565b82525050565b6000602082019050610b576000830184610b33565b92915050565b600073ffffffffffffffffffffffffffffffffffffffff82169050919050565b6000610b8882610b5d565b9050919050565b610b9881610b7d565b82525050565b6000602082019050610bb36000830184610b8f565b92915050565b600080fd5b610bc781610b29565b8114610bd257600080fd5b50565b600081359050610be481610bbe565b92915050565b600060208284031215610c0057610bff610bb9565b5b6000610c0e84828501610bd5565b91505092915050565b60008115159050919050565b610c2c81610c17565b82525050565b6000602082019050610c476000830184610c23565b92915050565b610c5681610b7d565b8114610c6157600080fd5b50565b600081359050610c7381610c4d565b92915050565b600060208284031215610c8f57610c8e610bb9565b5b6000610c9d84828501610c64565b91505092915050565b600082825260208201905092915050565b7f596f7520646f6e2774206861766520656e6f7567682062616c616e6365210000600082015250565b6000610ced601e83610ca6565b9150610cf882610cb7565b602082019050919050565b60006020820190508181036000830152610d1c81610ce0565b9050919050565b7f4e487b7100000000000000000000000000000000000000000000000000000000600052604160045260246000fd5b6000819050919050565b610d6d610d6882610b29565b610d52565b82525050565b60008160601b9050919050565b6000610d8b82610d73565b9050919050565b6000610d9d82610d80565b9050919050565b610db5610db082610b7d565b610d92565b82525050565b6000610dc78285610d5c565b602082019150610dd78284610da4565b6014820191508190509392505050565b7f4e487b7100000000000000000000000000000000000000000000000000000000600052601260045260246000fd5b6000610e2182610b29565b9150610e2c83610b29565b925082610e3c57610e3b610de7565b5b828206905092915050565b7f4e487b7100000000000000000000000000000000000000000000000000000000600052601160045260246000fd5b6000610e8182610b29565b9150610e8c83610b29565b9250828201905080821115610ea457610ea3610e47565b5b92915050565b6000604082019050610ebf6000830185610b8f565b610ecc6020830184610b33565b9392505050565b600081519050610ee281610bbe565b92915050565b600060208284031215610efe57610efd610bb9565b5b6000610f0c84828501610ed3565b91505092915050565b7f546869732062657474696e672067616d6520697320616c72656164792066696e60008201527f6973686564210000000000000000000000000000000000000000000000000000602082015250565b6000610f71602683610ca6565b9150610f7c82610f15565b604082019050919050565b60006020820190508181036000830152610fa081610f64565b9050919050565b7f54686572652061726520616c726561647920656e6f75676820706c617965727360008201527f2100000000000000000000000000000000000000000000000000000000000000602082015250565b6000611003602183610ca6565b915061100e82610fa7565b604082019050919050565b6000602082019050818103600083015261103281610ff6565b9050919050565b7f5468657265206172656e277420656e6f75676820706c61796572732100000000600082015250565b600061106f601c83610ca6565b915061107a82611039565b602082019050919050565b6000602082019050818103600083015261109e81611062565b9050919050565b7f4e487b7100000000000000000000000000000000000000000000000000000000600052603260045260246000fdfea26469706673582212207be4f5ae85ea0f8f7f12143898e1f051df2dfd410802d9093db28bf7fc87149464736f6c63430008110033",
  "linkReferences": {},
  "deployedLinkReferences": {}
}